:020000040000FA
:100000000A128A11D92F00308A000408840A820754
:100010000034303439343234363400347334693493
:100020007334743465346D346134203462346C3428
:100030006F34713475346534613464346F34003432
:100040005034723465347334733420346134203462
:100050004B34653479342034203420342034203437
:10006000003443346C34613476346534203449349C
:100070006E3463346F347234723465346334743480
:100080006134003443346C34613476346534203464
:1000900043346F347234723465346334743461348D
:0600A00000342A34003494
:1003DA00F030831603138605F03086048113080073
:1003EA0001300A128A1113230A128A110830F40002
:1003FA00C930F300F30BFF29F40BFF29042A080084
:10040A00313432343334413434343534363442348A
:10041A0037343834393443342A3430342334443486
:10042A00F200F101721C1A2A1B2A1D2A7008F10710
:10043A000310F00D0310F20C7208031D252A262A58
:10044A00172A710808007E088A007F0882000A12AB
:10045A008A1128220A128A118000840A04087D0659
:10046A0003190034FF0A0319FE0A2C2A452A03300D
:10047A00F3009730F200F20B402AF30B402A452A88
:10048A000130F0020030031CF103F102700A031D6F
:10049A00522A710A031D522A532A3C2A0800632A47
:1004AA00730884000A128A1103200A128A110A1296
:1004BA008A1149230A128A110130F307730884004A
:1004CA000A128A1103200A128A11003A031D6E2A9F
:1004DA006F2A552A0800F600023076020318762A97
:1004EA00772A822A74080F398038F70077080A12A7
:1004FA008A1113230A128A118C2A74080F39C038F8
:10050A00F70077080A128A1113230A128A1175084A
:10051A00F3000A128A1154220A128A1108000034BE
:10052A000E341134113411340A341B3400340A34B1
:10053A000A340A341B340A340A340A3400341234B2
:10054A00143418341034183415341334173411345D
:10055A0019341D341F341D34193411340034003455
:10056A001F340A340A340A340A340934003483162C
:10057A00031387012730F400F530F300F30BC32A85
:10058A00F40BC32A02300A128A1113230A128A119F
:10059A0028300A128A1113230A128A1101300A1208
:1005AA008A1113230A128A110C300A128A11132390
:1005BA000A128A1106300A128A1113230A128A11A0
:1005CA000800F500083075020318EC2AED2A122BF0
:1005DA007508F40002300310F40DFF3E031DF02AE3
:1005EA000310740D403E0A128A1113230A128A114B
:1005FA00F60176087307F400740884008313000870
:10060A000A128A1149230A128A110130F6070830A0
:10061A007602031C112B122BFE2A0800F200F0307E
:10062A007205F0008312031307080F39700487005C
:10063A000710871400008312031387100330F10098
:10064A009730F000F00B272BF10B272B2C2B72087D
:10065A00F00004300310F00DFF3E031D2F2B831210
:10066A00031307080F3970048700871400008312E8
:10067A00031387100830F100C930F000F00B432B48
:10068A00F10B432B482B0800F200F0307205F00002
:10069A008312031307080F3970048700071487149D
:1006AA0000008312031387100330F1009730F00023
:1006BA00F00B5D2BF10B5D2B622B7208F0000430FE
:1006CA000310F00DFF3E031D652B83120313070869
:1006DA000F397004870087140000831203138710F0
:1006EA000830F100C930F000F00B792BF10B792BAF
:1006FA007E2B0800F4012830F50001300A128A1115
:10070A0070220A128A114030F30000300A128A114C
:10071A00E6220A128A113830F30001300A128A11CD
:10072A00E6220A128A113030F30002300A128A11C4
:10073A00E6220A128A112830F30003300A128A11BB
:10074A00E6220A128A112030F30004300A128A11B2
:10075A00E6220A128A11F80105307802031CB62B28
:10076A00B72BB82BCF2B0330F00078080A128A1166
:10077A0015220A128A11C0380A128A1113230A1280
:10078A008A1178080A128A1149230A128A11013039
:10079A00F807B12B08000130F2020030031CF30302
:1007AA00F302720A031DDD2B730A031DDD2BDE2BF8
:1007BA00EB2BF001F101272C0130F0070130F10792
:1007CA000130F2020030031CF303F30270088400C4
:1007DA00831300080319F22BF32B152C71088400DC
:1007EA000A128A1103200A128A11003A0319FE2BEF
:1007FA00FF2B152C720873040319042C052C152CD5
:10080A00710884000A128A1103200A128A11F4005C
:10081A0070088400000874060319142C152CE12BA7
:10082A00710884000A128A1103200A128A11F4003C
:10083A00700884000008F50074087502F000F101E0
:10084A00031CF103080083120313CA00C801C9017B
:10085A00802C56304A06031D332C342C362C0514B2
:10086A00452C41304A06031D3B2C3C2C3E2C85145A
:10087A00452C52304A06031D432C442C452C0515A1
:10088A007508F1007408F0000A128A113B220A1254
:10089A008A115630831203134A06031D552C562C0F
:1008AA00582C0510672C41304A06031D5D2C5E2C1E
:1008BA00602C8510672C52304A06031D652C662C65
:1008CA00672C05117708F1007608F0000A128A11E0
:1008DA003B220A128A1176087407FA00770803186D
:1008EA00770A7507FB007A0883120313C8070318EF
:1008FA00C90A7B08C90779084902031D862C7808AA
:10090A004802031C892C8A2C2E2C0800A030F700E0
:10091A000030F8000130F9000030FA00F501F60164
:10092A00F301F40179087704F5007A087804F600EF
:10093A0075088312031388000630F2001330F100A1
:10094A00AD30F000F00BA72CF10BA72CF20BA72C63
:10095A00AE2C7808F1007708F0000310F10CF00CC7
:10096A007008F7007108F8000310790DF9007A0D84
:10097A00FA0079087704F5007A087804F600750811
:10098A008312031388000630F2001330F100AD30F1
:10099A00F000F00BCE2CF10BCE2CF20BCE2CD52C7A
:1009AA0079087704F5007A087804F6000310770DC1
:1009BA00F700780DF8000310790DF9007A0DFA00A6
:1009CA000130F3070318F40A0030F4077408803A78
:1009DA00FF0080307F02031DF42C02307302031CD7
:1009EA00F72CF82C972C0800A03084004830F0002F
:1009FA001030F10083130008F200040AF3007008B3
:100A0A00840072088000040AF00073088400F10B65
:100A1A00FF2C83120313D801D901DA0183120313BD
:100A2A0059085A04031D1A2D1B2D402DFE3086002D
:100A3A004230F000F00B1F2D0000252D4808D80089
:100A4A0083120313061E2A2D2B2D232D2E2D490822
:100A5A00D800861E312D322D2C2D352D4A08D8006E
:100A6A00061F382D392D332D3C2D4B08D800861FF3
:100A7A003F2D402D3A2D59035A04031D452D462D6D
:100A8A006B2DFD3086004230F000F00B4A2D00003D
:100A9A00502D4C08D80083120313061E552D562DCF
:100AAA004E2D592D4D08D800861E5C2D5D2D572DD3
:100ABA00602D4E08D800061F632D642D5E2D672D0C
:100ACA004F08D800861F6A2D6B2D652D02305906F6
:100ADA005A04031D712D722D972DFB30860042306A
:100AEA00F000F00B762D00007C2D5008D800831200
:100AFA000313061E812D822D7A2D852D5108D800CB
:100B0A00861E882D892D832D8C2D5208D800061F0C
:100B1A008F2D902D8A2D932D5308D800861F962D40
:100B2A00972D912D033059065A04031D9D2D9E2D94
:100B3A00C32DF73086004230F000F00BA22D0000E2
:100B4A00A82D5408D80083120313061EAD2DAE2D0E
:100B5A00A62DB12D5508D800861EB42DB52DAF2D62
:100B6A00B82D5608D800061FBB2DBC2DB62DBF2D9B
:100B7A005708D800861FC22DC32DBD2D0130D907B5
:100B8A000318DA0A0030DA075A08803AFF00803080
:100B9A007F02031DD22D04305902031CD52DD62DF8
:100BAA00132D8312031358080800A030831203136D
:100BBA00D2000030D3000130D4000030D500CC017F
:100BCA00CD01C801C9018312031354085204CC0091
:100BDA0055085304CD004C0888000630F200133043
:100BEA00F100AD30F000F00BF82DF10BF82DF20BFF
:100BFA00F82DFF2D831203135308F1005208F00059
:100C0A000310F10CF00C7008D2007108D300031025
:100C1A00540DD400550DD50054085204CC00550883
:100C2A005304CD004C0888000630F2001330F1005E
:100C3A00AD30F000F00B1F2EF10B1F2EF20B1F2E02
:100C4A00262E8312031354085204CC005508530469
:100C5A00CD000310520DD200530DD3000310540DD2
:100C6A00D400550DD5000130C8070318C90A003051
:100C7A00C9074908803AFF0080307F02031D472ECA
:100C8A0002304802031C4A2E4B2EE82DA030831254
:100C9A000313D6000030D7000830D0000030D1004E
:100CAA00CE01CF01CA01CB018312031350085604A7
:100CBA00CE0051085704CF004E0888000630F200D3
:100CCA001330F100AD30F000F00B692EF10B692EF4
:100CDA00F20B692E702E831203135708F10056087F
:100CEA00F0000310F10CF00C7008D6007108D70060
:100CFA005108F1005008F0000310F10CF00C7008D4
:100D0A00D0007108D10050085604CE00510857048B
:100D1A00CF004E0888000630F2001330F100AD30E3
:100D2A00F000F00B962EF10B962EF20B962E9D2EBE
:100D3A008312031356085604CE0057085704CF00EF
:100D4A000310560DD600570DD7005108F100500870
:100D5A00F0000310F10CF00C7008D0007108D100FB
:100D6A000130CA070318CB0A0030CB074B08803A78
:100D7A00FF0080307F02031DC42E02304A02031C8A
:100D8A00C72EC82E592E08007130831603138F0000
:100D9A000A128A11BC220A128A110A128A11ED2138
:100DAA000A128A1183160313850183160317880111
:100DBA00831203138501831603178901831603130C
:100DCA0088010A128A118B240A128A110A128A11BC
:100DDA00DA250A128A11F4011830F50000300A12D5
:100DEA008A1170220A128A11C0300A128A11132338
:100DFA000A128A110A128A11F9240A128A11FC00AB
:100E0A007C080319092F0A2F1C2F7D08F40049308A
:100E1A00F50002300A128A1170220A128A117D081C
:100E2A00603E84007C08831380000130FD07023095
:100E3A0083120313DD000430DC00B930DB00DB0B66
:100E4A00242FDC0B242FDD0B242F2B2F05307D02C2
:100E5A00031C302F312FFF2E6030F0000130F100DB
:100E6A000430F2000030F3000A128A11D0230A1269
:100E7A008A1170087104031D432F442F6E2F0A1222
:100E8A008A11F5210A128A11F4013A30F50000306C
:100E9A000A128A1170220A128A110A128A117F23EF
:100EAA000A128A11F430F4000130F500F430F60029
:100EBA000130F700B830F8000B30F90056300A124A
:100ECA008A1128240A128A1183120313DE01DF0110
:100EDA00C02F0A128A11F5210A128A11F401293047
:100EEA00F50000300A128A1170220A128A112C3077
:100EFA00F4000130F500BC30F6000230F700D030C3
:100F0A00F8000730F90041300A128A1128240A121F
:100F1A008A11831203135E08013EDE005F0803187C
:100F2A00013E003EDF0003305E065F04031D9E2F74
:100F3A009F2FC02F0A128A11F5210A128A11F40171
:100F4A000630F50000300A128A1170220A128A113C
:100F5A002C30F4000130F500F430F6000130F700CF
:100F6A004030F8001F30F90052300A128A11282442
:100F7A000A128A11692F153083120313DD004B30D0
:100F8A00DC00BD30DB00DB0BC82FDC0BC82FDD0B10
:100F9A00C82FCF2F0A128A11F5210A128A11FD01D0
:100FAA00F02E0A128A1100288313B030FD00023095
:100FBA00FE000530FF00A03084000A128A112C229C
:100FCA000A128A114830FD000230FE009430FF00F8
:100FDA00203084000A128A112C220A128A11DE0198
:100FEA00DF01E001E101E201E301E401FD01830126
:060FFA000A128A11C92E43
:04400E00D520FF3F7B
:00000001FF
