:020000040000FA
:060000000A128A11DA2F3A
:100012000800F800780803190F2810282428F31F75
:100022001328142824287009FA007109FB007209A8
:10003200FC007309FD00FA0A0319FB0A0319FC0A02
:100042000319FD0A2C287308FD007208FC007108D0
:10005200FB007008FA007308720471047004031D37
:10006200332834283D280030F3000030F2000030FD
:10007200F1000030F000BD289630F9004B28013025
:10008200F90701300310FD0CFC0CFB0CFA0CFF3ECF
:10009200031D4328FE307D05031D502851284028AA
:1000A2006B280130F9070130FA07003003180130DC
:1000B200FB07003003180130FC0700300318013041
:1000C200FD0701300310FD0CFC0CFB0CFA0CFF3E8B
:1000D200031D6328FF307D05031D702871285228F7
:1000E2007D280130F9020130F4000310FA0DFB0DF6
:1000F200FC0DFD0DF40B7628FC1B80288128872837
:1001020002307902031886288728722879188A28EB
:100112008B289328FF30FA05FF30FB057F30FC0562
:10012200FF30FD050310F90C7908F400F501F60122
:10013200F70118300310F40DF50DF60DF70DFF3E23
:10014200031D9B287408FA047508FB047608FC0456
:100152007708FD0478080319AF28B028B528F31FE3
:10016200B328B428B528FD177D08F3007C08F200F7
:100172007B08F1007A08F0000800831203132208BA
:100182008400000884000A128A150A200A128A11C1
:10019200253A031DCD28CE28922922088400013059
:1001A200800783160313D801D90100308312031389
:1001B200EE00FF3083160313DA00FF30DB008312F8
:1001C2000313220884000008A700270884000A12EB
:1001D2008A150A200A128A11643A0319F128F228B0
:1001E200FE28270884000A128A150A200A128A1198
:1001F200693A031DFD28FE288B29230884008313F6
:100202000008FF00023080077F0884000008A80071
:10021200840A0008A900220884002708013E800001
:100222002030AC00A91B16291829013019290030E9
:10023200A6000130AC022C08903E84000A30F00087
:100242000030F1002908F3002808F2000A128A158A
:100252002C240A128A117108F7007008F6000A129B
:100262008A159D210A128A117608303E8317800072
:100272000A30F0000030F100831203132908F30062
:100282002808F2000A128A153E250A128A117108FC
:1002920083120313A9007008A8002808290403196F
:1002A2005329542959292C08031D582959291A2937
:1002B2002C0803195D295E2984292608031962295D
:1002C200632984290130AC022C08903E84002D3031
:1002D2008317800084292C08903E8400831700082D
:1002E200A400A5012408F0002508F1002008F2006E
:1002F2002108F3000A128A1585260A128A11013092
:1003020083120313AC0720302C06031D89298A2986
:100312006C29AB2983120313220884000130800761
:10032200AB2922088400000884000A128A150A20D8
:100332000A128A11A400A5012408F0002508F10080
:100342002008F2002108F3000A128A1585260A12F3
:100352008A118B290800A03083120313AA000030EF
:10036200AB000130AC000030AD00A401A501A0013A
:10037200A101831203132C082A04A4002D082B04C4
:10038200A500240888000630F2001330F100AD30D9
:10039200F000F00BCA29F10BCA29F20BCA29D129A4
:1003A200831203132B08F1002A08F0000310F10C4A
:1003B200F00C7008AA007108AB0003102C0DAC0001
:1003C2002D0DAD002C082A04A4002D082B04A50035
:1003D200240888000630F2001330F100AD30F0003E
:1003E200F00BF129F10BF129F20BF129F829831213
:1003F20003132C082A04A4002D082B04A5000310C3
:100402002A0DAA002B0DAB0003102C0DAC002D0DF4
:10041200AD000130A0070318A10A0030A10721088E
:10042200803AFF0080307F02031D192A0230200229
:10043200031C1C2A1D2ABA29A03083120313AE0002
:100442000030AF000830A8000030A900A601A701C3
:10045200A201A3018312031328082E04A60029086F
:100462002F04A700260888000630F2001330F1009E
:10047200AD30F000F00B3B2AF10B3B2AF20B3B2A8A
:10048200422A831203132F08F1002E08F0000310F2
:10049200F10CF00C7008AE007108AF002908F100F1
:1004A2002808F0000310F10CF00C7008A800710885
:1004B200A90028082E04A60029082F04A700260850
:1004C20088000630F2001330F100AD30F000F00B7E
:1004D200682AF10B682AF20B682A6F2A8312031327
:1004E2002E082E04A6002F082F04A70003102E0D9D
:1004F200AE002F0DAF002908F1002808F00003100C
:10050200F10CF00C7008A8007108A9000130A207D4
:100512000318A30A0030A3072308803AFF008030A3
:100522007F02031D962A02302202031C992A9A2A6C
:100532002B2A08007130831603138F000A128A15C2
:10054200AA220A128A11F5015930F60000300A1265
:100552008A1582220A128A11153083120313C600E9
:100562004B30C500BD30C400C40BB52AC50BB52A3B
:10057200C60BB52ABC2A0A128A157D210A128A11D3
:100582000A128A156D210A128A110A128A158D2100
:100592000A128A118316031389018316031788012D
:1005A2008312031389018316031789018316031328
:1005B20088010A128A15A1250A128A110A128A11C1
:1005C200AC210A128A11F5011830F60000300A1225
:1005D2008A1582220A128A11C0300A128A15012350
:1005E2000A128A110A128A151F270A128A11831205
:1005F2000313ED006D080319FF2A002B142B6F085B
:10060200F5006E30F60002300A128A1582220A12B2
:100612008A11831203136F08E03E84006D0883136E
:1006220080000130EF07023083120313C60004304A
:10063200C500B930C400C40B1C2BC50B1C2BC60B48
:100642001C2B232B0530831203136F02031C2A2B4E
:100652002B2BF32AE030F0000130F1000430F200DD
:100662000030F3000A128A1583240A128A117008D4
:100672007104031D3D2B3E2B282C0A128A157D2165
:100682000A128A11F5014A30F60000300A128A1560
:1006920082220A128A110A128A15DB230A128A118D
:1006A200F430F4000130F500F430F6000130F700C8
:1006B200B830F8000B30F90056300A128A15DB24E4
:1006C2000A128A1183160313DE01DF010830831236
:1006D2000313C6001B30C5002630C400C40B6F2BA9
:1006E200C50B6F2BC60B6F2B0000F5016430F600B3
:1006F20000300A128A1582220A128A11C0300A12A6
:100702008A1501230A128A110030F000F1000A1240
:100712008A156D230A128A11710883120313E800E5
:100722007008E7000130F0000030F1000A128A156B
:100732006D230A128A11710883120313EA007008EA
:10074200E900FF30C4000330C50067084402EB0033
:100752006808031C680A4502EC006B08F0006C088C
:10076200F1000030F11BFF30F200F30001300A12F9
:100772008A110A200A128A11730883120313A7002E
:100782007208A6007108A5007008A4003D30A300FD
:100792002630A2003730A1003730A0000A128A1199
:1007A20098240A128A11831203132308BD00220817
:1007B200BC002108BB002008BA000A128A150F26C5
:1007C2000A128A11831203133B0883160313DD00F6
:1007D200831203133A0883160313DC004730831293
:1007E2000313B1003A30B200831603135D0883127B
:1007F2000313B400831603135C0883120313B300BC
:100802006A08B6006908B5000A128A15ED210A12B3
:100812008A114730F3000030F4000A128A1535229B
:100822000A128A11153083120313C6004B30C50019
:10083200BD30C400C40B1B2CC50B1B2CC60B1B2CC0
:10084200222C0A128A157D210A128A11762B0A128B
:100852008A157D210A128A11F5012930F60000302D
:100862000A128A1582220A128A112C30F4000130EF
:10087200F500BC30F6000230F700D030F800073047
:10088200F90041300A128A15DB240A128A118316F2
:1008920003135E08013EDE005F080318013E003EBE
:1008A200DF0003305E065F04031D582C592C7D2C9B
:1008B2000A128A157D210A128A11F5010630F60004
:1008C20000300A128A1582220A128A112C30F40090
:1008D2000130F500F430F6000130F7004030F80046
:1008E2001F30F90052300A128A15DB240A128A11CB
:1008F20083160313DE01DF01153083120313C600D2
:100902004B30C500BD30C400C40B852CC50B852CF3
:10091200C60B852C8C2C0A128A157D210A128A118B
:1009220083120313EF01E42A0A128A1100288312A8
:1009320003132308AD008030AD052308A800280763
:10094200B300A21FA52CA62CA72C3314330803191D
:10095200AB2CAC2CBB2C330A031DB02CB12CB92C04
:100962000030A3000030A2000030A1000030A0003F
:10097200A217C32C0030A3000030A2000030A10057
:100982000030A00027088039AD062708A8002807F4
:10099200B200A61FCD2CCE2CCF2C32143208031954
:1009A200D32CD42CE32C320A031DD82CD92CE12CC5
:1009B2000030A7000030A6000030A5000030A400DF
:1009C200A617EB2C0030A7000030A6000030A500CF
:1009D2000030A40032080319EF2CF02CF52C330858
:1009E200031DF42CF52CFE2C0030A3000030A200D5
:1009F2000030A1000030A000D92F2008F000260806
:100A02000A128A155B220A128A11710883120313D1
:100A1200B9007008B8003808A800A901AA01AB0102
:100A22002B08B1002A08B0002908AF002808AE0040
:100A32003908A800A901AA01AB012B08B7002A08AE
:100A4200B6002908B5002808B4002108F0002508DE
:100A52000A128A155B220A128A1171088312031381
:100A6200B9007008B8003808A800A901AA01AB01B2
:100A72002808AE07290803110318013E0319422D65
:100A8200AF072A0803110318013E0319492DB007C5
:100A92002B0803110318013E0319502DB107390821
:100AA200A800A901AA01AB012808B407290803116B
:100AB2000318013E03195E2DB5072A080311031816
:100AC200013E0319652DB6072B0803110318013ED9
:100AD20003196C2DB7072208F00024080A128A15A0
:100AE2005B220A128A11710883120313B90070087B
:100AF200B8003808A800A901AA01AB012808AE076E
:100B0200290803110318013E0319882DAF072A088B
:100B120003110318013E03198F2DB0072B0803118F
:100B22000318013E0319962DB1073908A800A9013F
:100B3200AA01AB012808B407290803110318013ED2
:100B42000319A42DB5072A0803110318013E03193E
:100B5200AB2DB6072B0803110318013E0319B22D62
:100B6200B7070830A8000310AE0DAF0DB00DB10DE0
:100B7200A80BB42D2108F00024080A128A155B2262
:100B82000A128A11710883120313B9007008B8009F
:100B92003808A8003908A900AA01AB012808AE0745
:100BA200290803110318013E0319D82DAF072A089B
:100BB20003110318013E0319DF2DB0072B0803119F
:100BC2000318013E0319E62DB1072008F00025089D
:100BD2000A128A155B220A128A1171088312031300
:100BE200B9007008B8003808A8003908A900AA019D
:100BF200AB012808AE07290803110318013E0319A7
:100C0200032EAF072A0803110318013E03190A2E07
:100C1200B0072B0803110318013E0319112EB10767
:100C22000830A8000310AE0DAF0DB00DB10DA80B2A
:100C3200132E2008F00024080A128A155B220A12D9
:100C42008A11710883120313B9007008B8003808BA
:100C5200A8003908A900AA01AB012808AE07290893
:100C620003110318013E0319372EAF072A08031197
:100C72000318013E03193E2EB0072B080311031877
:100C8200013E0319452EB1072108F00026080A1279
:100C92008A155B220A128A11710883120313B900A2
:100CA2007008B8003808A8003908A900AA01AB01E9
:100CB2002808B407290803110318013E0319622EFC
:100CC200B5072A0803110318013E0319692EB60756
:100CD2002B0803110318013E0319702EB7072208CF
:100CE200F00025080A128A155B220A128A1171087D
:100CF20083120313B9007008B8003808A800390835
:100D0200A900AA01AB012808B40729080311031896
:100D1200013E03198D2EB5072A0803110318013E5F
:100D22000319942EB6072B0803110318013E031969
:100D32009B2EB7072208F00026080A128A155B22AA
:100D42000A128A11710883120313B9007008B800DD
:100D52003808A8003908A900AA01AB01083003101D
:100D6200A80DA90DAA0DAB0DFF3E031DB02E28083C
:100D7200B407290803110318013E0319C12EB50750
:100D82002A0803110318013E0319C82EB6072B08BF
:100D920003110318013E0319CF2EB7072E08A8002E
:100DA2002F08A9003008AA003108AB001830031040
:100DB200AB0CAA0CA90CA80CFF3E031DD82E2808C8
:100DC200B407290803110318013E0319E92EB507D8
:100DD2002A0803110318013E0319F02EB6072B0847
:100DE20003110318013E0319F72EB7070830A800B4
:100DF2000310AE0DAF0DB00DB10DA80BF92E3308D7
:100E02003207A800A901A90D2808823EB8002908C6
:100E12000318013EFF3EB9002B2F0130A80003103A
:100E2200B40DB50DB60DB70DA80B102FB11F1A2FAB
:100E32001B2F1C2F34140130A8000310AE0DAF0D70
:100E4200B00DB10DA80B1E2FFF30B8070318B90A59
:100E5200FF30B907B61F2E2F2F2F0E2FB201B11F51
:100E6200332F342F502FFF302E05A800FF302F05CF
:100E7200A900FF303005AA007F303105AB002B08F6
:100E82002A04290428040319472F482F4B2F013025
:100E9200B200502F341C4E2F4F2F502F482F3208A4
:100EA2000319542F552F862F0130B4070030031831
:100EB2000130B507003003180130B60700300318BF
:100EC2000130B707371C662F672F862F3408A8001A
:100ED2003508A9003608AA003708AB000130AC007B
:100EE2002B0DAB0CAA0CA90CA80CAC0B712F2B0868
:100EF200B7002A08B6002908B5002808B400013056
:100F0200B8070318B90A0030B9073908803AFF0058
:100F120080307F02031D8F2FFF303802031C922F77
:100F2200932F9E2F7F3083120313B7008030B600B9
:100F32000030B5000030B400CF2F831203133908FC
:100F4200803AFF0080307F02031DA92F0130380252
:100F52000318AC2FAD2FB92F003083120313B70043
:100F62000030B6000030B5000030B400AD01CF2F24
:100F7200831203133808B300FF30B405FF30B50500
:100F82007F30B6050030B705331CC82FC92FCA2FD2
:100F9200B6173308A8000310280CB7002D08B704B1
:100FA2003708A3003608A2003508A1003408A000C3
:100FB20008008313D830FD000B30FE00A330FF0081
:100FC200A03084000A128A15C5210A128A118317D9
:100FD20090308400B0300A128A1575210A128A11E3
:100FE2008313D8308400E5300A128A1575210A125B
:100FF2008A11EE01EF0183010A128A119B2AFF1B5B
:101002000A2883137F1883170008840A0319FF0A2A
:10101200080008308A000408840A82070034303449
:1010220039343234363400347334693473347434BA
:1010320065346D346134203462346C346F3471340D
:1010420075346534613464346F340034503472342E
:101052006534733473342034613420344B34653452
:101062007934203420342034203420340034433482
:101072006C34613476346534203449346E346334EC
:101082006F347234723465346334743461340034CE
:10109200543445344D3450343A3420342534643495
:1010A200203420344C343A3420342534643400342F
:1010B20043346C34613476346534203443346F34D1
:1010C20072347234653463347434613400344234BB
:1010D200493445344E34563445344E34493444341C
:1010E2004F34003441344D344234493445344E3463
:0C10F200543441344C3400342A340034AF
:1012DA00F030831603138605F03086048113080064
:1012EA0064008001840A040603190034040676297E
:1012FA0001300A128A1501230A128A150830F400ED
:10130A00C930F300F30B8729F40B87298C290800CD
:10131A00831603139F171F129F12831203131F08AA
:10132A003F3940389F009E01831603139E0108002F
:10133A00F71BA029A129A229AD297609F800770966
:10134A00F900F80A0319F90A7808F6007908F7008B
:10135A000800F200F101721CB329B429B6297008F9
:10136A00F1070310F00D0310F20C7208031DBE29D9
:10137A00BF29B029710808007E088A007F08820008
:10138A000A128A15C1210A128A158000840A0408E1
:10139A007D0603190034FF0A0319FE0AC529DE294E
:1013AA000330F3009730F200F20BD929F30BD92955
:1013BA00DE290130F0020030031CF103F102700A49
:1013CA00031DEB29710A031DEB29EC29D529080015
:1013DA00333083120313B8003108B9000030BA0061
:1013EA00BB01BC01C201C3013930AD000030AE00FF
:1013FA003208AF003830B0000A128A1510220A12D9
:10140A008A15831203133B083107B7003708840093
:10141A00831380010800831203132F08FD00242A76
:10142A00831203132D08A0002E08A1007D30A2000C
:10143A003008A3000A128A11BE200A128A157D08F2
:10144A0084000A128A150A200A128A15003A031D14
:10145A002F2A302A152A83120313AD01AE01080080
:10146A004A2A7408FF00730884000A128A150020A9
:10147A000A128A150A128A1537230A128A150130A6
:10148A00F3070318F40A0030F407740883120313ED
:10149A00FF00730884000A128A1500200A128A15AE
:1014AA00003A031D592A5A2A362A0800F800F4017C
:1014BA00F5017008F200F3017208F6007308F700EC
:1014CA00781C682A692A6F2A7608F4070318F50A2D
:1014DA007708F50701300310F60DF70DFF3E031DDF
:1014EA00702A0310F80C7808031D7C2A7D2A652AC5
:1014FA007508F1007408F0000800F700023077025E
:10150A000318882A892A942A75080F398038F8001E
:10151A0078080A128A1501230A128A159E2A750862
:10152A000F39C038F80078080A128A1501230A12FE
:10153A008A157608F3000030031D8030F4000A1281
:10154A008A1535220A128A150800831603138701A1
:10155A002730F400F530F300F30BB12AF40BB12A6B
:10156A0002300A128A1501230A128A1528300A1231
:10157A008A1501230A128A1501300A128A150123D3
:10158A000A128A150C300A128A1501230A128A15C0
:10159A0006300A128A1501230A128A150800F50074
:1015AA00083075020318DA2ADB2A002B7508F400C2
:1015BA0002300310F40DFF3E031DDE2A0310740DE2
:1015CA00403E0A128A1501230A128A15F601760884
:1015DA007307F40074088400831300080A128A153A
:1015EA0037230A128A150130F60708307602031CDF
:1015FA00FF2A002BEC2A0800F200F0307205F000F6
:10160A008312031307080F39700487000710871421
:10161A0000008312031387100330F1009730F000A3
:10162A00F00B152BF10B152B1A2B7208F000043056
:10163A000310F00DFF3E031D1D2B83120313070831
:10164A000F39700487008714000083120313871070
:10165A000830F100C930F000F00B312BF10B312BBF
:10166A00362B0800F200F0307205F00083120313E3
:10167A0007080F39700487000714871400008312C3
:10168A00031387100330F1009730F000F00B4B2B57
:10169A00F10B4B2B502B7208F00004300310F00DA5
:1016AA00FF3E031D532B8312031307080F397004DF
:1016BA008700871400008312031387100830F10093
:1016CA00C930F000F00B672BF10B672B6C2B08006D
:1016DA0070080F39F200F20DF20D831203131F087E
:1016EA007206C33972069F001F141330F200F20B00
:1016FA007C2B7F2B831203139F149F18852B862B19
:10170A00822B1E08F200F3017208F6007308F70034
:10171A007608F300F201831603131E087207F40019
:10172A000030031801307307F5007408F6007508D5
:10173A00F7007708F1007608F000080031343234F7
:10174A00333441343434353436344234373438342B
:10175A00393443342A3430342334443400340E3494
:10176A001134113411340A341B3400340A340A3463
:10177A000A341B340A340A340A3400341234143456
:10178A001834103418341534133417341134193406
:10179A001D341F341D3419341134003400341F34FD
:1017AA000A340A340A340A3409340034F501283078
:1017BA00F60001300A128A1582220A128A15D030DE
:1017CA00F30000300A128A15D4220A128A15C83088
:1017DA00F30001300A128A15D4220A128A15C0307F
:1017EA00F30002300A128A15D4220A128A15B83076
:1017FA00F30003300A128A15D4220A128A15B0306D
:10180A00F30004300A128A15D4220A128A15F90141
:10181A0005307902031C122C132C142C2B2C0330A8
:10182A00F00079080A128A15AE210A128A15C03800
:10183A000A128A1501230A128A1579080A128A15C8
:10184A0037230A128A150130F9070D2C0800F50111
:10185A00F31F302C312C382CF209F309F20A031940
:10186A00F30A0130F500F11F3B2C3C2C412CF00906
:10187A00F109F00A0319F10A700871040319462CD8
:10188A00472C742C0130F400532C01300310F00D56
:10189A00F10DFF3E031D4B2C0130F407F11F562CAE
:1018AA00572C4A2C71087302031D5D2C70087202B2
:1018BA00031C602C612C672C7008F2027108031C4F
:1018CA00F303F30201300310F10CF00CFF3E031D89
:1018DA00682C0130F402031D732C742C572C7508E4
:1018EA000319782C792C7E2CF209F309F20A0319D0
:1018FA00F30A7308F1007208F00008000130F202DE
:10190A000030031CF303F302720A031D902C730ABE
:10191A00031D902C912C9E2CF001F101DA2C013040
:10192A00F0070130F1070130F2020030031CF30323
:10193A00F30270088400831300080319A52CA62C4F
:10194A00C82C710884000A128A150A200A128A15FC
:10195A00003A0319B12CB22CC82C7208730403196B
:10196A00B72CB82CC82C710884000A128A150A20D0
:10197A000A128A15F4007008840000087406031914
:10198A00C72CC82C942C710884000A128A150A20C4
:10199A000A128A15F400700884000008F500740819
:1019AA007502F000F101031CF1030800831203130E
:1019BA00A200A001A101332D56302206031DE62CF8
:1019CA00E72CE92C0914F82C41302206031DEE2CD1
:1019DA00EF2CF12C8914F82C52302206031DF62C18
:1019EA00F72CF82C09157508F1007408F0000A1292
:1019FA008A15D4210A128A15563083120313220635
:101A0A00031D082D092D0B2D09101A2D4130220610
:101A1A00031D102D112D132D89101A2D5230220657
:101A2A00031D182D192D1A2D09117708F1007608B2
:101A3A00F0000A128A15D4210A128A157608740748
:101A4A00FA0077080318770A7507FB007A088312E9
:101A5A000313A0070318A10A7B08A107790821022A
:101A6A00031D392D78082002031C3C2D3D2DE12C45
:101A7A000800F501F11F422D432D4A2DF009F10905
:101A8A00F00A0319F10A0130F500F31F4D2D4E2D0E
:101A9A00552DF209F309F20A0319F30A0130F50682
:101AAA00F601F7017008710403195C2D5D2D922D62
:101ABA000130F400692D01300310F00DF10DFF3EE5
:101ACA00031D612D0130F407F11F6C2D6D2D602D62
:101ADA0001300310F60DF70DFF3E031D6E2D710840
:101AEA007302031D7A2D70087202031C7D2D7E2D50
:101AFA00852D7008F2027108031CF303F3027614B1
:101B0A0001300310F10CF00CFF3E031D862D01304D
:101B1A00F402031D912D922D6D2D75080319962D32
:101B2A00972D9C2DF609F709F60A0319F70A770883
:101B3A00F1007608F0000800A030F7000030F80045
:101B4A000130F9000030FA00F501F601F301F40161
:101B5A0079087704F5007A087804F6007508831284
:101B6A00031388000630F2001330F100AD30F000A4
:101B7A00F00BBD2DF10BBD2DF20BBD2DC42D780838
:101B8A00F1007708F0000310F10CF00C7008F70070
:101B9A007108F8000310790DF9007A0DFA00790836
:101BAA007704F5007A087804F6007508831203139F
:101BBA0088000630F2001330F100AD30F000F00B6F
:101BCA00E42DF10BE42DF20BE42DEB2D79087704CB
:101BDA00F5007A087804F6000310770DF700780DFF
:101BEA00F8000310790DF9007A0DFA000130F307B5
:101BFA000318F40A0030F4077408803AFF008030B2
:101C0A007F02031D0A2E02307302031C0D2E0E2EB4
:101C1A00AD2D08000310831203133C0D3D0DC300C4
:101C2A004308031D192E1A2E232E0030BD00003042
:101C3A00BC000030BB000030BA00842E3A08BE0057
:101C4A003B08BF003C08C0003D08C1001F3003101C
:101C5A00C10CC00CBF0CBE0CFF3E031D2C2E3E084F
:101C6A00C200BC17FF30BA05FF30BB05FF30BC0508
:101C7A000030BD059630C302C31F442E452E5D2E8B
:101C8A004308803A973E03184B2E4C2E4D2E1A2E9F
:101C9A0001300310BD0CBC0CBB0CBA0CFF3E031D7B
:101CAA004E2E0130C307031D5B2E5C2E4D2E742E63
:101CBA0020304302031C622E632E6F2E1A2E01302F
:101CCA00BE000310BA0DBB0DBC0DBD0DBE0B662EBA
:101CDA000130C3024308031D732E742E642E42087A
:101CEA000319782E792E842EBA09BB09BC09BD09BD
:101CFA00BA0A0319BB0A0319BC0A0319BD0A080068
:101D0A007208730403198A2E8B2E912E720873049B
:101D1A00031D902E912E982E70080A128A110920FE
:101D2A000A128A151E2F7208093EF4007308031856
:101D3A00013E003EF500740884008317751C831366
:101D4A000008F600840A0008F700760877040319E9
:101D5A00AF2EB02EE22E7208093EF4007308031863
:101D6A00013E003EF500740884008317751C831336
:101D7A000008F600840A0008F7007208023EF8001C
:101D8A0073080318013E003EF9007808840083179F
:101D9A00791C83130008FA00840A0008FB007B08F8
:101DAA00803AFC007708803A7C02031DDE2E760812
:101DBA007A020318E12EE22E1E2F7208840083177E
:101DCA00731C83130008F400840A0008F5007208E3
:101DDA00023EF60073080318013E003EF70076083B
:101DEA0084008317771C831300087407F9007508A9
:101DFA00F8000318F80A801F032FF8037808FA007E
:101E0A007908840083177A1C83137008800072088B
:101E1A00023EF40073080318013E003EF500740800
:101E2A0084008317751C831301308007840A031802
:101E3A00800A0800A03084002030F0001030F10041
:101E4A0083130008F200040AF30070088400720881
:101E5A008000040AF00073088400F10B252F831216
:101E6A000313B001B101B201831203133108320422
:101E7A00031D402F412F662FFE3086004230F000AE
:101E8A00F00B452F00004B2F2008B00083120313DC
:101E9A00061E502F512F492F542F2108B000861E9D
:101EAA00572F582F522F5B2F2208B000061F5E2F84
:101EBA005F2F592F622F2308B000861F652F662FC8
:101ECA00602F31033204031D6B2F6C2F912FFD30CD
:101EDA0086004230F000F00B702F0000762F2408A5
:101EEA00B00083120313061E7B2F7C2F742F7F2FC3
:101EFA002508B000861E822F832F7D2F862F260865
:101F0A00B000061F892F8A2F842F8D2F2708B00033
:101F1A00861F902F912F8B2F023031063204031D1A
:101F2A00972F982FBD2FFB3086004230F000F00B20
:101F3A009C2F0000A22F2808B00083120313061E4C
:101F4A00A72FA82FA02FAB2F2908B000861EAE2FCF
:101F5A00AF2FA92FB22F2A08B000061FB52FB62F10
:101F6A00B02FB92F2B08B000861FBC2FBD2FB72F5B
:101F7A00033031063204031DC32FC42FE92FF73073
:101F8A0086004230F000F00BC82F0000CE2F2C083C
:101F9A00B00083120313061ED32FD42FCC2FD72FB2
:101FAA002D08B000861EDA2FDB2FD52FDE2F2E0844
:101FBA00B000061FE12FE22FDC2FE52F2F08B0001B
:101FCA00861FE82FE92FE32F0130B1070318B20A61
:101FDA000030B2073208803AFF0080307F02031DCA
:101FEA00F82F04303102031CFB2FFC2F392F8312E8
:061FFA000313300808008B
:04400E00D520FF3F7B
:00000001FF
